{
  "contractName": "Freezable",
  "abi": [
    {
      "anonymous": false,
      "inputs": [
        {
          "indexed": true,
          "internalType": "address",
          "name": "target",
          "type": "address"
        }
      ],
      "name": "Freeze",
      "type": "event"
    },
    {
      "anonymous": false,
      "inputs": [
        {
          "indexed": true,
          "internalType": "address",
          "name": "previousOwner",
          "type": "address"
        },
        {
          "indexed": true,
          "internalType": "address",
          "name": "newOwner",
          "type": "address"
        }
      ],
      "name": "OwnershipTransferred",
      "type": "event"
    },
    {
      "anonymous": false,
      "inputs": [
        {
          "indexed": true,
          "internalType": "address",
          "name": "target",
          "type": "address"
        }
      ],
      "name": "Unfreeze",
      "type": "event"
    },
    {
      "inputs": [],
      "name": "owner",
      "outputs": [
        {
          "internalType": "address",
          "name": "",
          "type": "address"
        }
      ],
      "stateMutability": "view",
      "type": "function"
    },
    {
      "inputs": [],
      "name": "renounceOwnership",
      "outputs": [],
      "stateMutability": "nonpayable",
      "type": "function"
    },
    {
      "inputs": [
        {
          "internalType": "address",
          "name": "newOwner",
          "type": "address"
        }
      ],
      "name": "transferOwnership",
      "outputs": [],
      "stateMutability": "nonpayable",
      "type": "function"
    },
    {
      "inputs": [
        {
          "internalType": "address",
          "name": "target",
          "type": "address"
        }
      ],
      "name": "freeze",
      "outputs": [
        {
          "internalType": "bool",
          "name": "success",
          "type": "bool"
        }
      ],
      "stateMutability": "nonpayable",
      "type": "function"
    },
    {
      "inputs": [
        {
          "internalType": "address",
          "name": "target",
          "type": "address"
        }
      ],
      "name": "unFreeze",
      "outputs": [
        {
          "internalType": "bool",
          "name": "success",
          "type": "bool"
        }
      ],
      "stateMutability": "nonpayable",
      "type": "function"
    },
    {
      "inputs": [
        {
          "internalType": "address",
          "name": "target",
          "type": "address"
        }
      ],
      "name": "isFrozen",
      "outputs": [
        {
          "internalType": "bool",
          "name": "frozen",
          "type": "bool"
        }
      ],
      "stateMutability": "view",
      "type": "function"
    },
    {
      "inputs": [
        {
          "internalType": "address",
          "name": "target",
          "type": "address"
        }
      ],
      "name": "toCheckWhenNotFrozenModifier",
      "outputs": [
        {
          "internalType": "bool",
          "name": "success",
          "type": "bool"
        }
      ],
      "stateMutability": "view",
      "type": "function"
    }
  ],
  "bytecode": "0x608060405234801561001057600080fd5b5061001a3361001f565b61006f565b600080546001600160a01b038381166001600160a01b0319831681178455604051919092169283917f8be0079c531659141344cd1fd0a4f28419497f9722a3daafe3b4186f6b6457e09190a35050565b6104618061007e6000396000f3fe608060405234801561001057600080fd5b506004361061007d5760003560e01c80638d1fdf2f1161005b5780638d1fdf2f146100c75780638da5cb5b146100da578063e5839836146100f5578063f2fde38b1461012157600080fd5b806355e57ad914610082578063715018a6146100aa57806383cfab42146100b4575b600080fd5b6100956100903660046103c6565b610134565b60405190151581526020015b60405180910390f35b6100b26101ad565b005b6100956100c23660046103c6565b6101e3565b6100956100d53660046103c6565b61025c565b6000546040516001600160a01b0390911681526020016100a1565b6100956101033660046103c6565b6001600160a01b031660009081526001602052604090205460ff1690565b6100b261012f3660046103c6565b6102db565b6001600160a01b038116600090815260016020526040812054829060ff16156101a45760405162461bcd60e51b815260206004820152601c60248201527f467265657a61626c65203a207461726765742069732066726f7a656e0000000060448201526064015b60405180910390fd5b50600192915050565b6000546001600160a01b031633146101d75760405162461bcd60e51b815260040161019b906103f6565b6101e16000610376565b565b600080546001600160a01b0316331461020e5760405162461bcd60e51b815260040161019b906103f6565b6001600160a01b038216600081815260016020526040808220805460ff19169055517fca5069937e68fd197927055037f59d7c90bf75ac104e6e375539ef480c3ad6ee9190a2506001919050565b600080546001600160a01b031633146102875760405162461bcd60e51b815260040161019b906103f6565b6001600160a01b0382166000818152600160208190526040808320805460ff1916909217909155517faf85b60d26151edd11443b704d424da6c43d0468f2235ebae3d1904dbc3230499190a2506001919050565b6000546001600160a01b031633146103055760405162461bcd60e51b815260040161019b906103f6565b6001600160a01b03811661036a5760405162461bcd60e51b815260206004820152602660248201527f4f776e61626c653a206e6577206f776e657220697320746865207a65726f206160448201526564647265737360d01b606482015260840161019b565b61037381610376565b50565b600080546001600160a01b038381166001600160a01b0319831681178455604051919092169283917f8be0079c531659141344cd1fd0a4f28419497f9722a3daafe3b4186f6b6457e09190a35050565b6000602082840312156103d857600080fd5b81356001600160a01b03811681146103ef57600080fd5b9392505050565b6020808252818101527f4f776e61626c653a2063616c6c6572206973206e6f7420746865206f776e657260408201526060019056fea26469706673582212201c4f84b754bb1b4bfa2bd6b7b3834e3f5f056ac2d3ae266a5260fb41740745b964736f6c63430008070033",
  "immutableReferences": {},
  "source": "// SPDX-License-Identifier: MIT\npragma solidity 0.8.7;\n\nimport '@openzeppelin/contracts/access/Ownable.sol';\n\ncontract Freezable is Ownable {\n    mapping(address => bool) private _frozen;\n\n    event Freeze(address indexed target);\n    event Unfreeze(address indexed target);\n\n    modifier whenNotFrozen(address target) {\n        require(!_frozen[target], \"Freezable : target is frozen\");\n        _;\n    }\n\n    function freeze(address target) external onlyOwner returns (bool success) {\n        _frozen[target] = true;\n        emit Freeze(target);\n        success = true;\n    }\n\n    function unFreeze(address target) external onlyOwner returns (bool success) {\n        _frozen[target] = false;\n        emit Unfreeze(target);\n        success = true;\n    }\n\n    function isFrozen(address target) external view returns (bool frozen) {\n        return _frozen[target];\n    }\n\n    function toCheckWhenNotFrozenModifier(address target) external view whenNotFrozen(target) returns (bool success) {\n        return true;\n    }\n}",
  "sourcePath": "/home/katerith/Projects/Blockchain/Dev/KateToken/contracts/Freezable.sol",
  "compiler": {
    "name": "solc",
    "version": "0.8.7+commit.e28d00a7.Emscripten.clang"
  },
  "schemaVersion": "3.4.3",
  "updatedAt": "2021-09-24T13:01:02.890Z",
  "devdoc": {
    "kind": "dev",
    "methods": {
      "owner()": {
        "details": "Returns the address of the current owner."
      },
      "renounceOwnership()": {
        "details": "Leaves the contract without owner. It will not be possible to call `onlyOwner` functions anymore. Can only be called by the current owner. NOTE: Renouncing ownership will leave the contract without an owner, thereby removing any functionality that is only available to the owner."
      },
      "transferOwnership(address)": {
        "details": "Transfers ownership of the contract to a new account (`newOwner`). Can only be called by the current owner."
      }
    },
    "version": 1
  },
  "userdoc": {
    "kind": "user",
    "methods": {},
    "version": 1
  }
}