{
  "contractName": "KateToken",
  "abi": [
    {
      "inputs": [],
      "stateMutability": "nonpayable",
      "type": "constructor"
    },
    {
      "anonymous": false,
      "inputs": [
        {
          "indexed": true,
          "internalType": "address",
          "name": "owner",
          "type": "address"
        },
        {
          "indexed": true,
          "internalType": "address",
          "name": "spender",
          "type": "address"
        },
        {
          "indexed": false,
          "internalType": "uint256",
          "name": "value",
          "type": "uint256"
        }
      ],
      "name": "Approval",
      "type": "event"
    },
    {
      "anonymous": false,
      "inputs": [
        {
          "indexed": true,
          "internalType": "address",
          "name": "target",
          "type": "address"
        }
      ],
      "name": "Freeze",
      "type": "event"
    },
    {
      "anonymous": false,
      "inputs": [
        {
          "indexed": true,
          "internalType": "address",
          "name": "previousOwner",
          "type": "address"
        },
        {
          "indexed": true,
          "internalType": "address",
          "name": "newOwner",
          "type": "address"
        }
      ],
      "name": "OwnershipTransferred",
      "type": "event"
    },
    {
      "anonymous": false,
      "inputs": [
        {
          "indexed": false,
          "internalType": "address",
          "name": "account",
          "type": "address"
        }
      ],
      "name": "Paused",
      "type": "event"
    },
    {
      "anonymous": false,
      "inputs": [
        {
          "indexed": true,
          "internalType": "address",
          "name": "from",
          "type": "address"
        },
        {
          "indexed": true,
          "internalType": "address",
          "name": "to",
          "type": "address"
        },
        {
          "indexed": false,
          "internalType": "uint256",
          "name": "value",
          "type": "uint256"
        }
      ],
      "name": "Transfer",
      "type": "event"
    },
    {
      "anonymous": false,
      "inputs": [
        {
          "indexed": true,
          "internalType": "address",
          "name": "target",
          "type": "address"
        }
      ],
      "name": "Unfreeze",
      "type": "event"
    },
    {
      "anonymous": false,
      "inputs": [
        {
          "indexed": false,
          "internalType": "address",
          "name": "account",
          "type": "address"
        }
      ],
      "name": "Unpaused",
      "type": "event"
    },
    {
      "inputs": [
        {
          "internalType": "address",
          "name": "owner",
          "type": "address"
        },
        {
          "internalType": "address",
          "name": "spender",
          "type": "address"
        }
      ],
      "name": "allowance",
      "outputs": [
        {
          "internalType": "uint256",
          "name": "",
          "type": "uint256"
        }
      ],
      "stateMutability": "view",
      "type": "function"
    },
    {
      "inputs": [
        {
          "internalType": "address",
          "name": "spender",
          "type": "address"
        },
        {
          "internalType": "uint256",
          "name": "amount",
          "type": "uint256"
        }
      ],
      "name": "approve",
      "outputs": [
        {
          "internalType": "bool",
          "name": "",
          "type": "bool"
        }
      ],
      "stateMutability": "nonpayable",
      "type": "function"
    },
    {
      "inputs": [
        {
          "internalType": "address",
          "name": "account",
          "type": "address"
        }
      ],
      "name": "balanceOf",
      "outputs": [
        {
          "internalType": "uint256",
          "name": "",
          "type": "uint256"
        }
      ],
      "stateMutability": "view",
      "type": "function"
    },
    {
      "inputs": [],
      "name": "decimals",
      "outputs": [
        {
          "internalType": "uint8",
          "name": "",
          "type": "uint8"
        }
      ],
      "stateMutability": "view",
      "type": "function"
    },
    {
      "inputs": [
        {
          "internalType": "address",
          "name": "target",
          "type": "address"
        }
      ],
      "name": "freeze",
      "outputs": [
        {
          "internalType": "bool",
          "name": "success",
          "type": "bool"
        }
      ],
      "stateMutability": "nonpayable",
      "type": "function"
    },
    {
      "inputs": [
        {
          "internalType": "address",
          "name": "target",
          "type": "address"
        }
      ],
      "name": "isFrozen",
      "outputs": [
        {
          "internalType": "bool",
          "name": "frozen",
          "type": "bool"
        }
      ],
      "stateMutability": "view",
      "type": "function"
    },
    {
      "inputs": [],
      "name": "name",
      "outputs": [
        {
          "internalType": "string",
          "name": "",
          "type": "string"
        }
      ],
      "stateMutability": "view",
      "type": "function"
    },
    {
      "inputs": [],
      "name": "owner",
      "outputs": [
        {
          "internalType": "address",
          "name": "",
          "type": "address"
        }
      ],
      "stateMutability": "view",
      "type": "function"
    },
    {
      "inputs": [],
      "name": "paused",
      "outputs": [
        {
          "internalType": "bool",
          "name": "",
          "type": "bool"
        }
      ],
      "stateMutability": "view",
      "type": "function"
    },
    {
      "inputs": [],
      "name": "renounceOwnership",
      "outputs": [],
      "stateMutability": "nonpayable",
      "type": "function"
    },
    {
      "inputs": [],
      "name": "symbol",
      "outputs": [
        {
          "internalType": "string",
          "name": "",
          "type": "string"
        }
      ],
      "stateMutability": "view",
      "type": "function"
    },
    {
      "inputs": [
        {
          "internalType": "address",
          "name": "target",
          "type": "address"
        }
      ],
      "name": "toCheckWhenNotFrozenModifier",
      "outputs": [
        {
          "internalType": "bool",
          "name": "success",
          "type": "bool"
        }
      ],
      "stateMutability": "view",
      "type": "function"
    },
    {
      "inputs": [
        {
          "internalType": "address",
          "name": "recipient",
          "type": "address"
        },
        {
          "internalType": "uint256",
          "name": "amount",
          "type": "uint256"
        }
      ],
      "name": "transfer",
      "outputs": [
        {
          "internalType": "bool",
          "name": "",
          "type": "bool"
        }
      ],
      "stateMutability": "nonpayable",
      "type": "function"
    },
    {
      "inputs": [
        {
          "internalType": "address",
          "name": "newOwner",
          "type": "address"
        }
      ],
      "name": "transferOwnership",
      "outputs": [],
      "stateMutability": "nonpayable",
      "type": "function"
    },
    {
      "inputs": [
        {
          "internalType": "address",
          "name": "target",
          "type": "address"
        }
      ],
      "name": "unFreeze",
      "outputs": [
        {
          "internalType": "bool",
          "name": "success",
          "type": "bool"
        }
      ],
      "stateMutability": "nonpayable",
      "type": "function"
    },
    {
      "inputs": [],
      "name": "totalSupply",
      "outputs": [
        {
          "internalType": "uint256",
          "name": "",
          "type": "uint256"
        }
      ],
      "stateMutability": "view",
      "type": "function"
    },
    {
      "inputs": [
        {
          "internalType": "address",
          "name": "sender",
          "type": "address"
        },
        {
          "internalType": "address",
          "name": "recipient",
          "type": "address"
        },
        {
          "internalType": "uint256",
          "name": "amount",
          "type": "uint256"
        }
      ],
      "name": "transferFrom",
      "outputs": [
        {
          "internalType": "bool",
          "name": "",
          "type": "bool"
        }
      ],
      "stateMutability": "nonpayable",
      "type": "function"
    },
    {
      "inputs": [
        {
          "internalType": "address",
          "name": "spender",
          "type": "address"
        },
        {
          "internalType": "uint256",
          "name": "addedValue",
          "type": "uint256"
        }
      ],
      "name": "increaseAllowance",
      "outputs": [
        {
          "internalType": "bool",
          "name": "",
          "type": "bool"
        }
      ],
      "stateMutability": "nonpayable",
      "type": "function"
    },
    {
      "inputs": [
        {
          "internalType": "address",
          "name": "spender",
          "type": "address"
        },
        {
          "internalType": "uint256",
          "name": "subtractedValue",
          "type": "uint256"
        }
      ],
      "name": "decreaseAllowance",
      "outputs": [
        {
          "internalType": "bool",
          "name": "",
          "type": "bool"
        }
      ],
      "stateMutability": "nonpayable",
      "type": "function"
    },
    {
      "inputs": [
        {
          "internalType": "uint256",
          "name": "amount",
          "type": "uint256"
        }
      ],
      "name": "_mint",
      "outputs": [],
      "stateMutability": "nonpayable",
      "type": "function"
    },
    {
      "inputs": [
        {
          "internalType": "uint256",
          "name": "amount",
          "type": "uint256"
        }
      ],
      "name": "_burn",
      "outputs": [],
      "stateMutability": "nonpayable",
      "type": "function"
    },
    {
      "inputs": [],
      "name": "mockPause",
      "outputs": [],
      "stateMutability": "nonpayable",
      "type": "function"
    },
    {
      "inputs": [],
      "name": "mockUnpause",
      "outputs": [],
      "stateMutability": "nonpayable",
      "type": "function"
    }
  ],
  "bytecode": "0x60806040523480156200001157600080fd5b506040518060400160405280600981526020016825b0ba32aa37b5b2b760b91b8152506040518060400160405280600381526020016225aa2760e91b8152508160039080519060200190620000689291906200019c565b5080516200007e9060049060208401906200019c565b5050506200009b620000956200014660201b60201c565b6200014a565b6005805460ff60a01b19169055600c54620000bb9060ff16600a6200028b565b620000ca90620f424062000359565b6009819055600c80546001600160a01b03610100918290048116600090815260076020526040808220959095559254919091041680825282822054925190927fddf252ad1be2c89b69c2b068fc378daa952ba7f163c4a11628f55a4df523b3ef916200013891815260200190565b60405180910390a3620003ce565b3390565b600580546001600160a01b038381166001600160a01b0319831681179093556040519116919082907f8be0079c531659141344cd1fd0a4f28419497f9722a3daafe3b4186f6b6457e090600090a35050565b828054620001aa906200037b565b90600052602060002090601f016020900481019282620001ce576000855562000219565b82601f10620001e957805160ff191683800117855562000219565b8280016001018555821562000219579182015b8281111562000219578251825591602001919060010190620001fc565b50620002279291506200022b565b5090565b5b808211156200022757600081556001016200022c565b600181815b8085111562000283578160001904821115620002675762000267620003b8565b808516156200027557918102915b93841c939080029062000247565b509250929050565b60006200029c60ff841683620002a3565b9392505050565b600082620002b45750600162000353565b81620002c35750600062000353565b8160018114620002dc5760028114620002e75762000307565b600191505062000353565b60ff841115620002fb57620002fb620003b8565b50506001821b62000353565b5060208310610133831016604e8410600b84101617156200032c575081810a62000353565b62000338838362000242565b80600019048211156200034f576200034f620003b8565b0290505b92915050565b6000816000190483118215151615620003765762000376620003b8565b500290565b600181811c908216806200039057607f821691505b60208210811415620003b257634e487b7160e01b600052602260045260246000fd5b50919050565b634e487b7160e01b600052601160045260246000fd5b6112c480620003de6000396000f3fe608060405234801561001057600080fd5b506004361061014d5760003560e01c8063715018a6116100c3578063a457c2d71161007c578063a457c2d7146102a9578063a9059cbb146102bc578063dd62ed3e146102cf578063e583983614610308578063eadc1ba614610334578063f2fde38b1461033c57600080fd5b8063715018a61461024557806383cfab421461024d5780638d1fdf2f146102605780638da5cb5b1461027357806395d89b411461028e5780639b1f9e741461029657600080fd5b80632c526196116101155780632c526196146101c2578063313ce567146101d557806339509351146101e457806355e57ad9146101f75780635c975abb1461020a57806370a082311461021c57600080fd5b806306fdde0314610152578063095ea7b3146101705780630a4f6b1d1461019357806318160ddd1461019d57806323b872dd146101af575b600080fd5b61015a61034f565b6040516101679190611147565b60405180910390f35b61018361017e366004611104565b6103e1565b6040519015158152602001610167565b61019b6103f7565b005b6009545b604051908152602001610167565b6101836101bd3660046110c8565b610434565b61019b6101d036600461112e565b610508565b60405160128152602001610167565b6101836101f2366004611104565b6105ca565b610183610205366004611073565b61068d565b600554600160a01b900460ff16610183565b6101a161022a366004611073565b6001600160a01b031660009081526020819052604090205490565b61019b610703565b61018361025b366004611073565b610737565b61018361026e366004611073565b6107b2565b6005546040516001600160a01b039091168152602001610167565b61015a610830565b61019b6102a436600461112e565b61083f565b6101836102b7366004611104565b610973565b6101836102ca366004611104565b610a4f565b6101a16102dd366004611095565b6001600160a01b03918216600090815260016020908152604080832093909416825291909152205490565b610183610316366004611073565b6001600160a01b031660009081526006602052604090205460ff1690565b61019b610a5c565b61019b61034a366004611073565b610a8e565b60606003805461035e90611243565b80601f016020809104026020016040519081016040528092919081815260200182805461038a90611243565b80156103d75780601f106103ac576101008083540402835291602001916103d7565b820191906000526020600020905b8154815290600101906020018083116103ba57829003601f168201915b5050505050905090565b60006103ee338484610b29565b50600192915050565b6005546001600160a01b0316331461042a5760405162461bcd60e51b8152600401610421906111df565b60405180910390fd5b610432610d4d565b565b6001600160a01b03831660009081526008602090815260408083203384529091528120548211156104b85760405162461bcd60e51b815260206004820152602860248201527f45524332303a207472616e7366657220616d6f756e74206578636565647320616044820152676c6c6f77616e636560c01b6064820152608401610421565b6104c3848484610dea565b6001600160a01b0384166000908152600860209081526040808320338085529252909120546104fe9186916104f990869061122c565b610b29565b5060019392505050565b6005546001600160a01b031633146105325760405162461bcd60e51b8152600401610421906111df565b80600960008282546105449190611214565b9091555050600c5461010090046001600160a01b031660009081526007602052604081208054839290610578908490611214565b9091555050600c546040518281526101009091046001600160a01b0316906000907fddf252ad1be2c89b69c2b068fc378daa952ba7f163c4a11628f55a4df523b3ef906020015b60405180910390a350565b60006001600160a01b0383166105f25760405162461bcd60e51b81526004016104219061119c565b3360009081526008602090815260408083206001600160a01b038716845290915281208054849290610625908490611214565b90915550503360008181526008602090815260408083206001600160a01b038816808552908352928190205490519081529192917f8c5be1e5ebec7d5bd14f71427d1e84f3dd0314c0f7b2291e5b200ac8c7c3b925910160405180910390a350600192915050565b6001600160a01b038116600090815260066020526040812054829060ff16156106f85760405162461bcd60e51b815260206004820152601c60248201527f467265657a61626c65203a207461726765742069732066726f7a656e000000006044820152606401610421565b600191505b50919050565b6005546001600160a01b0316331461072d5760405162461bcd60e51b8152600401610421906111df565b6104326000610f7d565b6005546000906001600160a01b031633146107645760405162461bcd60e51b8152600401610421906111df565b6001600160a01b038216600081815260066020526040808220805460ff19169055517fca5069937e68fd197927055037f59d7c90bf75ac104e6e375539ef480c3ad6ee9190a2506001919050565b6005546000906001600160a01b031633146107df5760405162461bcd60e51b8152600401610421906111df565b6001600160a01b038216600081815260066020526040808220805460ff19166001179055517faf85b60d26151edd11443b704d424da6c43d0468f2235ebae3d1904dbc3230499190a2506001919050565b60606004805461035e90611243565b6005546001600160a01b031633146108695760405162461bcd60e51b8152600401610421906111df565b600c5461010090046001600160a01b03166000908152600760205260409020548111156108e35760405162461bcd60e51b815260206004820152602260248201527f45524332303a206275726e20616d6f756e7420657863656564732062616c616e604482015261636560f01b6064820152608401610421565b80600960008282546108f5919061122c565b9091555050600c5461010090046001600160a01b03166000908152600760205260408120805483929061092990849061122c565b9091555050600c5460405182815260009161010090046001600160a01b0316907fddf252ad1be2c89b69c2b068fc378daa952ba7f163c4a11628f55a4df523b3ef906020016105bf565b60006001600160a01b03831661099b5760405162461bcd60e51b81526004016104219061119c565b3360009081526008602090815260408083206001600160a01b0387168452909152902054821115610a1c5760405162461bcd60e51b815260206004820152602560248201527f45524332303a2064656372656173656420616c6c6f77616e63652062656c6f77604482015264207a65726f60d81b6064820152608401610421565b3360009081526008602090815260408083206001600160a01b03871684529091528120805484929061062590849061122c565b60006103ee338484610dea565b6005546001600160a01b03163314610a865760405162461bcd60e51b8152600401610421906111df565b610432610fcf565b6005546001600160a01b03163314610ab85760405162461bcd60e51b8152600401610421906111df565b6001600160a01b038116610b1d5760405162461bcd60e51b815260206004820152602660248201527f4f776e61626c653a206e6577206f776e657220697320746865207a65726f206160448201526564647265737360d01b6064820152608401610421565b610b2681610f7d565b50565b6001600160a01b038316610b8b5760405162461bcd60e51b8152602060048201526024808201527f45524332303a20617070726f76652066726f6d20746865207a65726f206164646044820152637265737360e01b6064820152608401610421565b6001600160a01b038216610bec5760405162461bcd60e51b815260206004820152602260248201527f45524332303a20617070726f766520746f20746865207a65726f206164647265604482015261737360f01b6064820152608401610421565b6001600160a01b038316600090815260076020526040902054811115610c665760405162461bcd60e51b815260206004820152602960248201527f616c6c6f77616e636520616d6f756e742065786365656473206f776e65725f27604482015268732062616c616e636560b81b6064820152608401610421565b801580610c9457503360009081526008602090815260408083206001600160a01b0386168452909152902054155b610cec5760405162461bcd60e51b815260206004820152602360248201527f45524332303a2054686520616d6f756e74206d757374206e6f74206265207a6560448201526239379760e91b6064820152608401610421565b6001600160a01b0383811660008181526008602090815260408083209487168084529482529182902085905590518481527f8c5be1e5ebec7d5bd14f71427d1e84f3dd0314c0f7b2291e5b200ac8c7c3b925910160405180910390a3505050565b600554600160a01b900460ff16610d9d5760405162461bcd60e51b815260206004820152601460248201527314185d5cd8589b194e881b9bdd081c185d5cd95960621b6044820152606401610421565b6005805460ff60a01b191690557f5db9ee0a495bf2e6ff9c91a7834c1ba4fdd244a5e8aa4e537bd38aeae4b073aa335b6040516001600160a01b03909116815260200160405180910390a1565b6001600160a01b038316610e4e5760405162461bcd60e51b815260206004820152602560248201527f45524332303a207472616e736665722066726f6d20746865207a65726f206164604482015264647265737360d81b6064820152608401610421565b6001600160a01b038216610e745760405162461bcd60e51b81526004016104219061119c565b6001600160a01b03831660009081526020819052604090205481811015610eec5760405162461bcd60e51b815260206004820152602660248201527f45524332303a207472616e7366657220616d6f756e7420657863656564732062604482015265616c616e636560d01b6064820152608401610421565b6001600160a01b03808516600090815260208190526040808220858503905591851681529081208054849290610f23908490611214565b92505081905550826001600160a01b0316846001600160a01b03167fddf252ad1be2c89b69c2b068fc378daa952ba7f163c4a11628f55a4df523b3ef84604051610f6f91815260200190565b60405180910390a350505050565b600580546001600160a01b038381166001600160a01b0319831681179093556040519116919082907f8be0079c531659141344cd1fd0a4f28419497f9722a3daafe3b4186f6b6457e090600090a35050565b600554600160a01b900460ff161561101c5760405162461bcd60e51b815260206004820152601060248201526f14185d5cd8589b194e881c185d5cd95960821b6044820152606401610421565b6005805460ff60a01b1916600160a01b1790557f62e78cea01bee320cd4e420270b5ea74000d11b0c9f74754ebdbfc544b05a258610dcd3390565b80356001600160a01b038116811461106e57600080fd5b919050565b60006020828403121561108557600080fd5b61108e82611057565b9392505050565b600080604083850312156110a857600080fd5b6110b183611057565b91506110bf60208401611057565b90509250929050565b6000806000606084860312156110dd57600080fd5b6110e684611057565b92506110f460208501611057565b9150604084013590509250925092565b6000806040838503121561111757600080fd5b61112083611057565b946020939093013593505050565b60006020828403121561114057600080fd5b5035919050565b600060208083528351808285015260005b8181101561117457858101830151858201604001528201611158565b81811115611186576000604083870101525b50601f01601f1916929092016040019392505050565b60208082526023908201527f45524332303a207472616e7366657220746f20746865207a65726f206164647260408201526265737360e81b606082015260800190565b6020808252818101527f4f776e61626c653a2063616c6c6572206973206e6f7420746865206f776e6572604082015260600190565b6000821982111561122757611227611278565b500190565b60008282101561123e5761123e611278565b500390565b600181811c9082168061125757607f821691505b602082108114156106fd57634e487b7160e01b600052602260045260246000fd5b634e487b7160e01b600052601160045260246000fdfea2646970667358221220246df798552188ee9c28169322b4027d593a95df35915e028a666957a5c1df5c64736f6c63430008070033",
  "immutableReferences": {},
  "source": "// SPDX-License-Identifier: MIT\npragma solidity 0.8.7;\n\n// import '@openzeppelin/contracts/token/ERC20/IERC20.sol';\nimport '@openzeppelin/contracts/token/ERC20/ERC20.sol';\nimport '@openzeppelin/contracts/access/Ownable.sol';\nimport '@openzeppelin/contracts/security/Pausable.sol';\nimport './Freezable.sol';\n\n\ncontract KateToken is ERC20, Ownable, Pausable, Freezable {\n\n    mapping (address => uint256) private _balances;\n    mapping (address => mapping (address => uint256)) private _allowances;\n    \n    uint256 private _totalSupply;\n    \n    string private _name;\n    string private _symbol;\n    uint8 private _decimals;\n    address private _owner;\n\n    constructor() ERC20(\"KateToken\", \"KTN\") {\n        // _owner = msg.sender;\n        _totalSupply = 1000000 * 10 ** _decimals;\n\n        _balances[_owner] =_totalSupply;\n      \n        emit Transfer(address(0), _owner, _balances[_owner]);\n    }\n\n    // constructor()  {\n    //     _name = '';\n    //     _symbol = '';\n    //     _decimals = 18;\n    //     _owner = msg.sender;\n    //     _totalSupply = 1000000 * 10 ** _decimals;\n\n    //     _balances[_owner] =_totalSupply;\n      \n    //     emit Transfer(address(0), _owner, _balances[_owner]);\n    // }\n\n    // function name() public view returns (string memory) {\n    //     return _name;\n    // }\n\n    // function symbol() public view returns (string memory) {\n    //     return _symbol;\n    // }\n\n    // function decimals() public view returns (uint8) {\n    //     return _decimals;\n    // }\n\n    function totalSupply() public view override returns (uint256) {\n        return _totalSupply;\n    }\n\n    // function balanceOf(address account) public view override returns (uint256) {\n    //     return _balances[account];\n    // }\n\n    // function transfer(address recipient, uint256 amount) public override returns (bool) {\n    //     _transfer(msg.sender, recipient, amount);\n    //     return true;\n    // }\n\n    // function allowance(address owner_, address spender) public view override returns (uint256) {\n    //     return _allowances[owner_][spender];\n    // }\n\n    // function approve(address spender, uint256 amount) public override returns (bool) {\n    //     _approve(msg.sender, spender, amount);\n\n    //     return true;\n    // }\n\n    function transferFrom(address sender, address recipient, uint256 amount) public override returns (bool) {\n        require(_allowances[sender][msg.sender] >= amount, \"ERC20: transfer amount exceeds allowance\");\n\n        _transfer(sender, recipient, amount);\n        _approve(sender, msg.sender, _allowances[sender][msg.sender] - amount);\n\n        return true;\n    }\n\n    function increaseAllowance(address spender, uint256 addedValue) public override returns (bool) {\n        require(spender != address(0), \"ERC20: transfer to the zero address\");\n\n        _allowances[msg.sender][spender] += addedValue;\n\n        emit Approval(msg.sender, spender, _allowances[msg.sender][spender]);\n        return true;\n    }\n\n    function decreaseAllowance(address spender, uint256 subtractedValue) public override returns (bool) {\n        require(spender != address(0), \"ERC20: transfer to the zero address\");\n        require(_allowances[msg.sender][spender] >= subtractedValue, \"ERC20: decreased allowance below zero\");\n\n        _allowances[msg.sender][spender] -= subtractedValue;\n\n        emit Approval(msg.sender, spender, _allowances[msg.sender][spender]);\n        return true;\n    }\n\n    // function _transfer(address sender, address recipient, uint256 amount) internal {\n    //     require(sender != address(0), \"ERC20: transfer from the zero address\");\n    //     require(recipient != address(0), \"ERC20: transfer to the zero address\");\n    //     require(_balances[sender] >= amount, \"ERC20: transfer amount exceeds balance\");\n\n    //     _balances[sender] -= amount;\n    //     _balances[recipient] += amount;\n\n    //     emit Transfer(sender, recipient, amount);\n    // }\n\n    function _mint(uint amount) public onlyOwner {\n\n        _totalSupply += amount;\n        _balances[_owner] += amount;\n\n        emit Transfer(address(0), _owner, amount);\n    }\n\n    function _burn(uint amount) external onlyOwner {\n        require(_balances[_owner] >= amount, \"ERC20: burn amount exceeds balance\");\n\n        _totalSupply -= amount;\n        _balances[_owner] -= amount;\n\n        emit Transfer(_owner, address(0), amount);\n    }\n\n    function _approve(address owner_, address spender, uint256 amount) internal override {\n        require(owner_ != address(0), \"ERC20: approve from the zero address\");\n        require(spender != address(0), \"ERC20: approve to the zero address\");\n        require(amount <= _balances[owner_], \"allowance amount exceeds owner_'s balance\");\n        require(amount == 0 || _allowances[msg.sender][spender] == 0, \"ERC20: The amount must not be zero.\");\n\n        _allowances[owner_][spender] = amount;\n\n        emit Approval(owner_, spender, amount);\n    }\n\n    function mockPause() public onlyOwner {\n        _pause();\n    }\n\n    function mockUnpause() public onlyOwner {\n        _unpause();\n    }\n}\n",
  "sourcePath": "/home/katerith/Projects/Blockchain/Dev/KateToken/contracts/KateToken.sol",
  "compiler": {
    "name": "solc",
    "version": "0.8.7+commit.e28d00a7.Emscripten.clang"
  },
  "schemaVersion": "3.4.3",
  "updatedAt": "2021-09-24T14:43:12.909Z",
  "devdoc": {
    "kind": "dev",
    "methods": {
      "allowance(address,address)": {
        "details": "See {IERC20-allowance}."
      },
      "approve(address,uint256)": {
        "details": "See {IERC20-approve}. Requirements: - `spender` cannot be the zero address."
      },
      "balanceOf(address)": {
        "details": "See {IERC20-balanceOf}."
      },
      "decimals()": {
        "details": "Returns the number of decimals used to get its user representation. For example, if `decimals` equals `2`, a balance of `505` tokens should be displayed to a user as `5.05` (`505 / 10 ** 2`). Tokens usually opt for a value of 18, imitating the relationship between Ether and Wei. This is the value {ERC20} uses, unless this function is overridden; NOTE: This information is only used for _display_ purposes: it in no way affects any of the arithmetic of the contract, including {IERC20-balanceOf} and {IERC20-transfer}."
      },
      "decreaseAllowance(address,uint256)": {
        "details": "Atomically decreases the allowance granted to `spender` by the caller. This is an alternative to {approve} that can be used as a mitigation for problems described in {IERC20-approve}. Emits an {Approval} event indicating the updated allowance. Requirements: - `spender` cannot be the zero address. - `spender` must have allowance for the caller of at least `subtractedValue`."
      },
      "increaseAllowance(address,uint256)": {
        "details": "Atomically increases the allowance granted to `spender` by the caller. This is an alternative to {approve} that can be used as a mitigation for problems described in {IERC20-approve}. Emits an {Approval} event indicating the updated allowance. Requirements: - `spender` cannot be the zero address."
      },
      "name()": {
        "details": "Returns the name of the token."
      },
      "owner()": {
        "details": "Returns the address of the current owner."
      },
      "paused()": {
        "details": "Returns true if the contract is paused, and false otherwise."
      },
      "renounceOwnership()": {
        "details": "Leaves the contract without owner. It will not be possible to call `onlyOwner` functions anymore. Can only be called by the current owner. NOTE: Renouncing ownership will leave the contract without an owner, thereby removing any functionality that is only available to the owner."
      },
      "symbol()": {
        "details": "Returns the symbol of the token, usually a shorter version of the name."
      },
      "totalSupply()": {
        "details": "See {IERC20-totalSupply}."
      },
      "transfer(address,uint256)": {
        "details": "See {IERC20-transfer}. Requirements: - `recipient` cannot be the zero address. - the caller must have a balance of at least `amount`."
      },
      "transferFrom(address,address,uint256)": {
        "details": "See {IERC20-transferFrom}. Emits an {Approval} event indicating the updated allowance. This is not required by the EIP. See the note at the beginning of {ERC20}. Requirements: - `sender` and `recipient` cannot be the zero address. - `sender` must have a balance of at least `amount`. - the caller must have allowance for ``sender``'s tokens of at least `amount`."
      },
      "transferOwnership(address)": {
        "details": "Transfers ownership of the contract to a new account (`newOwner`). Can only be called by the current owner."
      }
    },
    "version": 1
  },
  "userdoc": {
    "kind": "user",
    "methods": {},
    "version": 1
  }
}