{
  "contractName": "KateToken",
  "abi": [
    {
      "inputs": [],
      "stateMutability": "nonpayable",
      "type": "constructor"
    },
    {
      "anonymous": false,
      "inputs": [
        {
          "indexed": true,
          "internalType": "address",
          "name": "owner",
          "type": "address"
        },
        {
          "indexed": true,
          "internalType": "address",
          "name": "spender",
          "type": "address"
        },
        {
          "indexed": false,
          "internalType": "uint256",
          "name": "value",
          "type": "uint256"
        }
      ],
      "name": "Approval",
      "type": "event"
    },
    {
      "anonymous": false,
      "inputs": [
        {
          "indexed": true,
          "internalType": "address",
          "name": "from",
          "type": "address"
        },
        {
          "indexed": true,
          "internalType": "address",
          "name": "to",
          "type": "address"
        },
        {
          "indexed": false,
          "internalType": "uint256",
          "name": "value",
          "type": "uint256"
        }
      ],
      "name": "Transfer",
      "type": "event"
    },
    {
      "inputs": [],
      "name": "name",
      "outputs": [
        {
          "internalType": "string",
          "name": "",
          "type": "string"
        }
      ],
      "stateMutability": "view",
      "type": "function"
    },
    {
      "inputs": [],
      "name": "symbol",
      "outputs": [
        {
          "internalType": "string",
          "name": "",
          "type": "string"
        }
      ],
      "stateMutability": "view",
      "type": "function"
    },
    {
      "inputs": [],
      "name": "decimals",
      "outputs": [
        {
          "internalType": "uint8",
          "name": "",
          "type": "uint8"
        }
      ],
      "stateMutability": "view",
      "type": "function"
    },
    {
      "inputs": [],
      "name": "totalSupply",
      "outputs": [
        {
          "internalType": "uint256",
          "name": "",
          "type": "uint256"
        }
      ],
      "stateMutability": "view",
      "type": "function"
    },
    {
      "inputs": [
        {
          "internalType": "address",
          "name": "account",
          "type": "address"
        }
      ],
      "name": "balanceOf",
      "outputs": [
        {
          "internalType": "uint256",
          "name": "",
          "type": "uint256"
        }
      ],
      "stateMutability": "view",
      "type": "function"
    },
    {
      "inputs": [
        {
          "internalType": "address",
          "name": "recipient",
          "type": "address"
        },
        {
          "internalType": "uint256",
          "name": "amount",
          "type": "uint256"
        }
      ],
      "name": "transfer",
      "outputs": [
        {
          "internalType": "bool",
          "name": "",
          "type": "bool"
        }
      ],
      "stateMutability": "nonpayable",
      "type": "function"
    },
    {
      "inputs": [
        {
          "internalType": "address",
          "name": "owner",
          "type": "address"
        },
        {
          "internalType": "address",
          "name": "spender",
          "type": "address"
        }
      ],
      "name": "allowance",
      "outputs": [
        {
          "internalType": "uint256",
          "name": "",
          "type": "uint256"
        }
      ],
      "stateMutability": "view",
      "type": "function"
    },
    {
      "inputs": [
        {
          "internalType": "address",
          "name": "spender",
          "type": "address"
        },
        {
          "internalType": "uint256",
          "name": "amount",
          "type": "uint256"
        }
      ],
      "name": "approve",
      "outputs": [
        {
          "internalType": "bool",
          "name": "",
          "type": "bool"
        }
      ],
      "stateMutability": "nonpayable",
      "type": "function"
    },
    {
      "inputs": [
        {
          "internalType": "address",
          "name": "sender",
          "type": "address"
        },
        {
          "internalType": "address",
          "name": "recipient",
          "type": "address"
        },
        {
          "internalType": "uint256",
          "name": "amount",
          "type": "uint256"
        }
      ],
      "name": "transferFrom",
      "outputs": [
        {
          "internalType": "bool",
          "name": "",
          "type": "bool"
        }
      ],
      "stateMutability": "nonpayable",
      "type": "function"
    },
    {
      "inputs": [
        {
          "internalType": "address",
          "name": "spender",
          "type": "address"
        },
        {
          "internalType": "uint256",
          "name": "addedValue",
          "type": "uint256"
        }
      ],
      "name": "increaseAllowance",
      "outputs": [
        {
          "internalType": "bool",
          "name": "",
          "type": "bool"
        }
      ],
      "stateMutability": "nonpayable",
      "type": "function"
    },
    {
      "inputs": [
        {
          "internalType": "address",
          "name": "spender",
          "type": "address"
        },
        {
          "internalType": "uint256",
          "name": "subtractedValue",
          "type": "uint256"
        }
      ],
      "name": "decreaseAllowance",
      "outputs": [
        {
          "internalType": "bool",
          "name": "",
          "type": "bool"
        }
      ],
      "stateMutability": "nonpayable",
      "type": "function"
    },
    {
      "inputs": [
        {
          "internalType": "uint256",
          "name": "amount",
          "type": "uint256"
        }
      ],
      "name": "_mint",
      "outputs": [],
      "stateMutability": "nonpayable",
      "type": "function"
    },
    {
      "inputs": [
        {
          "internalType": "uint256",
          "name": "amount",
          "type": "uint256"
        }
      ],
      "name": "_burn",
      "outputs": [],
      "stateMutability": "nonpayable",
      "type": "function"
    }
  ],
  "bytecode": "0x60806040523480156200001157600080fd5b506040805180820190915260098082526825b0ba32aa37b5b2b760b91b602090920191825262000044916003916200012a565b506040805180820190915260038082526225aa2760e91b602090920191825262000071916004916200012a565b506005805433610100026001600160a81b031990911617601217908190556200009f9060ff16600a62000219565b620000ae90620f4240620002e7565b6002819055600580546001600160a01b03610100918290048116600090815260208190526040808220959095559254919091041680825282822054925190927fddf252ad1be2c89b69c2b068fc378daa952ba7f163c4a11628f55a4df523b3ef916200011c91815260200190565b60405180910390a36200035c565b828054620001389062000309565b90600052602060002090601f0160209004810192826200015c5760008555620001a7565b82601f106200017757805160ff1916838001178555620001a7565b82800160010185558215620001a7579182015b82811115620001a75782518255916020019190600101906200018a565b50620001b5929150620001b9565b5090565b5b80821115620001b55760008155600101620001ba565b600181815b8085111562000211578160001904821115620001f557620001f562000346565b808516156200020357918102915b93841c9390800290620001d5565b509250929050565b60006200022a60ff84168362000231565b9392505050565b6000826200024257506001620002e1565b816200025157506000620002e1565b81600181146200026a5760028114620002755762000295565b6001915050620002e1565b60ff84111562000289576200028962000346565b50506001821b620002e1565b5060208310610133831016604e8410600b8410161715620002ba575081810a620002e1565b620002c68383620001d0565b8060001904821115620002dd57620002dd62000346565b0290505b92915050565b600081600019048311821515161562000304576200030462000346565b500290565b600181811c908216806200031e57607f821691505b602082108114156200034057634e487b7160e01b600052602260045260246000fd5b50919050565b634e487b7160e01b600052601160045260246000fd5b610bf3806200036c6000396000f3fe608060405234801561001057600080fd5b50600436106100cf5760003560e01c8063395093511161008c5780639b1f9e74116100665780639b1f9e74146101a8578063a457c2d7146101bb578063a9059cbb146101ce578063dd62ed3e146101e157600080fd5b8063395093511461016457806370a082311461017757806395d89b41146101a057600080fd5b806306fdde03146100d4578063095ea7b3146100f257806318160ddd1461011557806323b872dd146101275780632c5261961461013a578063313ce5671461014f575b600080fd5b6100dc61021a565b6040516100e99190610ae8565b60405180910390f35b610105610100366004610aa5565b6102ac565b60405190151581526020016100e9565b6002545b6040519081526020016100e9565b610105610135366004610a69565b6102c2565b61014d610148366004610acf565b61039b565b005b60055460405160ff90911681526020016100e9565b610105610172366004610aa5565b61048a565b610119610185366004610a14565b6001600160a01b031660009081526020819052604090205490565b6100dc6104c1565b61014d6101b6366004610acf565b6104d0565b6101056101c9366004610aa5565b610631565b6101056101dc366004610aa5565b6106e8565b6101196101ef366004610a36565b6001600160a01b03918216600090815260016020908152604080832093909416825291909152205490565b60606003805461022990610b6c565b80601f016020809104026020016040519081016040528092919081815260200182805461025590610b6c565b80156102a25780601f10610277576101008083540402835291602001916102a2565b820191906000526020600020905b81548152906001019060200180831161028557829003601f168201915b5050505050905090565b60006102b93384846106f5565b50600192915050565b6001600160a01b038316600090815260016020908152604080832033845290915281205482111561034b5760405162461bcd60e51b815260206004820152602860248201527f45524332303a207472616e7366657220616d6f756e74206578636565647320616044820152676c6c6f77616e636560c01b60648201526084015b60405180910390fd5b61035684848461081a565b6001600160a01b03841660009081526001602090815260408083203380855292529091205461039191869161038c908690610b55565b6106f5565b5060019392505050565b60055461010090046001600160a01b031633146103f25760405162461bcd60e51b81526020600482015260156024820152741bdb9b1e481bdddb995c881a5cc8185b1b1bddd959605a1b6044820152606401610342565b80600260008282546104049190610b3d565b909155505060055461010090046001600160a01b031660009081526020819052604081208054839290610438908490610b3d565b90915550506005546040518281526101009091046001600160a01b0316906000907fddf252ad1be2c89b69c2b068fc378daa952ba7f163c4a11628f55a4df523b3ef906020015b60405180910390a350565b3360008181526001602090815260408083206001600160a01b038716845290915281205490916102b991859061038c908690610b3d565b60606004805461022990610b6c565b60055461010090046001600160a01b031633146105275760405162461bcd60e51b81526020600482015260156024820152741bdb9b1e481bdddb995c881a5cc8185b1b1bddd959605a1b6044820152606401610342565b60055461010090046001600160a01b03166000908152602081905260409020548111156105a15760405162461bcd60e51b815260206004820152602260248201527f45524332303a206275726e20616d6f756e7420657863656564732062616c616e604482015261636560f01b6064820152608401610342565b80600260008282546105b39190610b55565b909155505060055461010090046001600160a01b0316600090815260208190526040812080548392906105e7908490610b55565b909155505060055460405182815260009161010090046001600160a01b0316907fddf252ad1be2c89b69c2b068fc378daa952ba7f163c4a11628f55a4df523b3ef9060200161047f565b3360009081526001602090815260408083206001600160a01b03861684529091528120548211156106b25760405162461bcd60e51b815260206004820152602560248201527f45524332303a2064656372656173656420616c6c6f77616e63652062656c6f77604482015264207a65726f60d81b6064820152608401610342565b3360008181526001602090815260408083206001600160a01b03881684529091529020546102b99190859061038c908690610b55565b60006102b933848461081a565b6001600160a01b0383166107575760405162461bcd60e51b8152602060048201526024808201527f45524332303a20617070726f76652066726f6d20746865207a65726f206164646044820152637265737360e01b6064820152608401610342565b6001600160a01b0382166107b85760405162461bcd60e51b815260206004820152602260248201527f45524332303a20617070726f766520746f20746865207a65726f206164647265604482015261737360f01b6064820152608401610342565b6001600160a01b0383811660008181526001602090815260408083209487168084529482529182902085905590518481527f8c5be1e5ebec7d5bd14f71427d1e84f3dd0314c0f7b2291e5b200ac8c7c3b92591015b60405180910390a3505050565b6001600160a01b03831661087e5760405162461bcd60e51b815260206004820152602560248201527f45524332303a207472616e736665722066726f6d20746865207a65726f206164604482015264647265737360d81b6064820152608401610342565b6001600160a01b0382166108e05760405162461bcd60e51b815260206004820152602360248201527f45524332303a207472616e7366657220746f20746865207a65726f206164647260448201526265737360e81b6064820152608401610342565b6001600160a01b0383166000908152602081905260409020548111156109575760405162461bcd60e51b815260206004820152602660248201527f45524332303a207472616e7366657220616d6f756e7420657863656564732062604482015265616c616e636560d01b6064820152608401610342565b6001600160a01b0383166000908152602081905260408120805483929061097f908490610b55565b90915550506001600160a01b038216600090815260208190526040812080548392906109ac908490610b3d565b92505081905550816001600160a01b0316836001600160a01b03167fddf252ad1be2c89b69c2b068fc378daa952ba7f163c4a11628f55a4df523b3ef8360405161080d91815260200190565b80356001600160a01b0381168114610a0f57600080fd5b919050565b600060208284031215610a2657600080fd5b610a2f826109f8565b9392505050565b60008060408385031215610a4957600080fd5b610a52836109f8565b9150610a60602084016109f8565b90509250929050565b600080600060608486031215610a7e57600080fd5b610a87846109f8565b9250610a95602085016109f8565b9150604084013590509250925092565b60008060408385031215610ab857600080fd5b610ac1836109f8565b946020939093013593505050565b600060208284031215610ae157600080fd5b5035919050565b600060208083528351808285015260005b81811015610b1557858101830151858201604001528201610af9565b81811115610b27576000604083870101525b50601f01601f1916929092016040019392505050565b60008219821115610b5057610b50610ba7565b500190565b600082821015610b6757610b67610ba7565b500390565b600181811c90821680610b8057607f821691505b60208210811415610ba157634e487b7160e01b600052602260045260246000fd5b50919050565b634e487b7160e01b600052601160045260246000fdfea264697066735822122060d8e76f076be2c9a8baebbc3ad65d3c82fb05fb7758a9485168707bd61edead64736f6c63430008070033",
  "immutableReferences": {},
  "source": "// SPDX-License-Identifier: MIT\npragma solidity 0.8.7;\n\nimport '@openzeppelin/contracts/token/ERC20/IERC20.sol';\nimport '@openzeppelin/contracts/access/Ownable.sol';\n\nimport './shared/ProtocolConstants.sol';\n\n\ncontract KateToken is IERC20 {\n\n    mapping (address => uint256) private _balances;\n    mapping (address => mapping (address => uint256)) private _allowances;\n    \n    uint256 private _totalSupply;\n    \n    string private _name;\n    string private _symbol;\n    uint8 private _decimals;\n    address private _owner;\n\n  constructor()  {\n      _name = 'KateToken';\n      _symbol = 'KTN';\n      _decimals = 18;\n      _owner = msg.sender;\n      _totalSupply = 1000000 * 10 ** _decimals;\n      \n      _balances[_owner] =_totalSupply;\n      \n      emit Transfer(address(0), _owner, _balances[_owner]);\n  }\n\n  function name() public view returns (string memory) {\n      return _name;\n  }\n\n  function symbol() public view returns (string memory) {\n      return _symbol;\n  }\n\n  function decimals() public view returns (uint8) {\n      return _decimals;\n  }\n\n  function totalSupply() public view override returns (uint256) {\n      return _totalSupply;\n  }\n\n  function balanceOf(address account) public view override returns (uint256) {\n      return _balances[account];\n  }\n\n  function transfer(address recipient, uint256 amount) public override returns (bool) {\n      _transfer(msg.sender, recipient, amount);\n      return true;\n  }\n\n  function allowance(address owner, address spender) public view override returns (uint256) {\n      return _allowances[owner][spender];\n  }\n\n  function approve(address spender, uint256 amount) public override returns (bool) {\n      _approve(msg.sender, spender, amount);\n\n      return true;\n  }\n\n  function transferFrom(address sender, address recipient, uint256 amount) public override returns (bool) {\n      require(_allowances[sender][msg.sender] >= amount, \"ERC20: transfer amount exceeds allowance\");\n\n      _transfer(sender, recipient, amount);\n      _approve(sender, msg.sender, _allowances[sender][msg.sender] - amount);\n      \n      return true;\n  }\n\n  function increaseAllowance(address spender, uint256 addedValue) public returns (bool) {\n      _approve(msg.sender, spender, _allowances[msg.sender][spender] + addedValue);\n      \n      return true;\n  }\n\n  function decreaseAllowance(address spender, uint256 subtractedValue) public returns (bool) {\n      require(_allowances[msg.sender][spender] >= subtractedValue, \"ERC20: decreased allowance below zero\");\n\n      _approve(msg.sender, spender, _allowances[msg.sender][spender] - subtractedValue);\n      \n      return true;\n  }\n\n  function _transfer(address sender, address recipient, uint256 amount) internal {\n      require(sender != address(0), \"ERC20: transfer from the zero address\");\n      require(recipient != address(0), \"ERC20: transfer to the zero address\");\n      require(_balances[sender] >= amount, \"ERC20: transfer amount exceeds balance\");\n\n      _balances[sender] -= amount;\n      _balances[recipient] += amount;\n\n      emit Transfer(sender, recipient, amount);\n    }\n\n  function _mint(uint amount) public {\n      require(msg.sender == _owner,\"only owner is allowed\");\n\n      _totalSupply += amount;\n      _balances[_owner] += amount;\n\n      emit Transfer(address(0), _owner, amount);\n  }\n    \n  function _burn(uint amount) external {\n      require(msg.sender == _owner,\"only owner is allowed\");\n      require(_balances[_owner] >= amount, \"ERC20: burn amount exceeds balance\");\n\n      _totalSupply -= amount;\n      _balances[_owner] -= amount;\n\n      emit Transfer(_owner, address(0), amount);\n  }\n\n  function _approve(address owner, address spender, uint256 amount) internal {\n      require(owner != address(0), \"ERC20: approve from the zero address\");\n      require(spender != address(0), \"ERC20: approve to the zero address\");\n\n      _allowances[owner][spender] = amount;\n\n      emit Approval(owner, spender, amount);\n    }\n}\n",
  "sourcePath": "/home/katerith/Projects/Blockchain/Dev/erc20/contracts/KateToken.sol",
  "compiler": {
    "name": "solc",
    "version": "0.8.7+commit.e28d00a7.Emscripten.clang"
  },
  "schemaVersion": "3.4.3",
  "updatedAt": "2021-09-20T17:39:05.720Z",
  "devdoc": {
    "kind": "dev",
    "methods": {
      "allowance(address,address)": {
        "details": "Returns the remaining number of tokens that `spender` will be allowed to spend on behalf of `owner` through {transferFrom}. This is zero by default. This value changes when {approve} or {transferFrom} are called."
      },
      "approve(address,uint256)": {
        "details": "Sets `amount` as the allowance of `spender` over the caller's tokens. Returns a boolean value indicating whether the operation succeeded. IMPORTANT: Beware that changing an allowance with this method brings the risk that someone may use both the old and the new allowance by unfortunate transaction ordering. One possible solution to mitigate this race condition is to first reduce the spender's allowance to 0 and set the desired value afterwards: https://github.com/ethereum/EIPs/issues/20#issuecomment-263524729 Emits an {Approval} event."
      },
      "balanceOf(address)": {
        "details": "Returns the amount of tokens owned by `account`."
      },
      "totalSupply()": {
        "details": "Returns the amount of tokens in existence."
      },
      "transfer(address,uint256)": {
        "details": "Moves `amount` tokens from the caller's account to `recipient`. Returns a boolean value indicating whether the operation succeeded. Emits a {Transfer} event."
      },
      "transferFrom(address,address,uint256)": {
        "details": "Moves `amount` tokens from `sender` to `recipient` using the allowance mechanism. `amount` is then deducted from the caller's allowance. Returns a boolean value indicating whether the operation succeeded. Emits a {Transfer} event."
      }
    },
    "version": 1
  },
  "userdoc": {
    "kind": "user",
    "methods": {},
    "version": 1
  }
}